{
  "_format": "hh-sol-artifact-1",
  "contractName": "WTFTradingTable",
  "sourceName": "contracts/WTFTradingTable.sol",
  "abi": [
    {
      "inputs": [
        {
          "internalType": "contract IERC20",
          "name": "_token",
          "type": "address"
        }
      ],
      "stateMutability": "nonpayable",
      "type": "constructor"
    },
    {
      "inputs": [
        {
          "internalType": "address",
          "name": "owner",
          "type": "address"
        }
      ],
      "name": "OwnableInvalidOwner",
      "type": "error"
    },
    {
      "inputs": [
        {
          "internalType": "address",
          "name": "account",
          "type": "address"
        }
      ],
      "name": "OwnableUnauthorizedAccount",
      "type": "error"
    },
    {
      "anonymous": false,
      "inputs": [
        {
          "indexed": false,
          "internalType": "uint256",
          "name": "tableId",
          "type": "uint256"
        },
        {
          "indexed": false,
          "internalType": "uint8",
          "name": "seat",
          "type": "uint8"
        },
        {
          "indexed": false,
          "internalType": "address",
          "name": "player",
          "type": "address"
        }
      ],
      "name": "Joined",
      "type": "event"
    },
    {
      "anonymous": false,
      "inputs": [
        {
          "indexed": true,
          "internalType": "address",
          "name": "previousOwner",
          "type": "address"
        },
        {
          "indexed": true,
          "internalType": "address",
          "name": "newOwner",
          "type": "address"
        }
      ],
      "name": "OwnershipTransferred",
      "type": "event"
    },
    {
      "anonymous": false,
      "inputs": [
        {
          "indexed": false,
          "internalType": "uint256",
          "name": "tableId",
          "type": "uint256"
        },
        {
          "indexed": false,
          "internalType": "uint8",
          "name": "seat",
          "type": "uint8"
        },
        {
          "indexed": false,
          "internalType": "uint256",
          "name": "bid",
          "type": "uint256"
        },
        {
          "indexed": false,
          "internalType": "uint256",
          "name": "ask",
          "type": "uint256"
        }
      ],
      "name": "QuotePosted",
      "type": "event"
    },
    {
      "anonymous": false,
      "inputs": [
        {
          "indexed": false,
          "internalType": "uint256",
          "name": "tableId",
          "type": "uint256"
        }
      ],
      "name": "Settled",
      "type": "event"
    },
    {
      "anonymous": false,
      "inputs": [
        {
          "indexed": false,
          "internalType": "uint256",
          "name": "id",
          "type": "uint256"
        },
        {
          "components": [
            {
              "internalType": "uint256",
              "name": "tick",
              "type": "uint256"
            },
            {
              "internalType": "uint256",
              "name": "feePct",
              "type": "uint256"
            },
            {
              "internalType": "uint256",
              "name": "roundLength",
              "type": "uint256"
            },
            {
              "internalType": "bool",
              "name": "twoWayMode",
              "type": "bool"
            },
            {
              "internalType": "uint256",
              "name": "minBuyIn",
              "type": "uint256"
            }
          ],
          "indexed": false,
          "internalType": "struct WTFTradingTable.TableConfig",
          "name": "config",
          "type": "tuple"
        }
      ],
      "name": "TableCreated",
      "type": "event"
    },
    {
      "anonymous": false,
      "inputs": [
        {
          "indexed": false,
          "internalType": "uint256",
          "name": "tableId",
          "type": "uint256"
        },
        {
          "indexed": false,
          "internalType": "uint8",
          "name": "buyer",
          "type": "uint8"
        },
        {
          "indexed": false,
          "internalType": "uint8",
          "name": "seller",
          "type": "uint8"
        },
        {
          "indexed": false,
          "internalType": "uint256",
          "name": "priceTicks",
          "type": "uint256"
        }
      ],
      "name": "TradeExecuted",
      "type": "event"
    },
    {
      "inputs": [
        {
          "internalType": "uint256",
          "name": "tableId",
          "type": "uint256"
        },
        {
          "internalType": "uint8",
          "name": "fromSeat",
          "type": "uint8"
        },
        {
          "internalType": "uint8",
          "name": "toSeat",
          "type": "uint8"
        },
        {
          "internalType": "uint256",
          "name": "priceTicks",
          "type": "uint256"
        }
      ],
      "name": "acceptAsk",
      "outputs": [],
      "stateMutability": "nonpayable",
      "type": "function"
    },
    {
      "inputs": [
        {
          "internalType": "uint256",
          "name": "tableId",
          "type": "uint256"
        },
        {
          "internalType": "uint8",
          "name": "fromSeat",
          "type": "uint8"
        },
        {
          "internalType": "uint8",
          "name": "toSeat",
          "type": "uint8"
        },
        {
          "internalType": "uint256",
          "name": "priceTicks",
          "type": "uint256"
        }
      ],
      "name": "acceptBid",
      "outputs": [],
      "stateMutability": "nonpayable",
      "type": "function"
    },
    {
      "inputs": [
        {
          "components": [
            {
              "internalType": "uint256",
              "name": "tick",
              "type": "uint256"
            },
            {
              "internalType": "uint256",
              "name": "feePct",
              "type": "uint256"
            },
            {
              "internalType": "uint256",
              "name": "roundLength",
              "type": "uint256"
            },
            {
              "internalType": "bool",
              "name": "twoWayMode",
              "type": "bool"
            },
            {
              "internalType": "uint256",
              "name": "minBuyIn",
              "type": "uint256"
            }
          ],
          "internalType": "struct WTFTradingTable.TableConfig",
          "name": "config",
          "type": "tuple"
        }
      ],
      "name": "createTable",
      "outputs": [],
      "stateMutability": "nonpayable",
      "type": "function"
    },
    {
      "inputs": [
        {
          "internalType": "uint256",
          "name": "",
          "type": "uint256"
        },
        {
          "internalType": "uint8",
          "name": "",
          "type": "uint8"
        }
      ],
      "name": "escrow",
      "outputs": [
        {
          "internalType": "uint256",
          "name": "",
          "type": "uint256"
        }
      ],
      "stateMutability": "view",
      "type": "function"
    },
    {
      "inputs": [
        {
          "internalType": "uint256",
          "name": "tableId",
          "type": "uint256"
        },
        {
          "internalType": "uint8",
          "name": "seat",
          "type": "uint8"
        }
      ],
      "name": "joinTable",
      "outputs": [],
      "stateMutability": "nonpayable",
      "type": "function"
    },
    {
      "inputs": [],
      "name": "nextTableId",
      "outputs": [
        {
          "internalType": "uint256",
          "name": "",
          "type": "uint256"
        }
      ],
      "stateMutability": "view",
      "type": "function"
    },
    {
      "inputs": [],
      "name": "owner",
      "outputs": [
        {
          "internalType": "address",
          "name": "",
          "type": "address"
        }
      ],
      "stateMutability": "view",
      "type": "function"
    },
    {
      "inputs": [
        {
          "internalType": "uint256",
          "name": "tableId",
          "type": "uint256"
        },
        {
          "internalType": "uint8",
          "name": "seat",
          "type": "uint8"
        },
        {
          "internalType": "uint256",
          "name": "bid",
          "type": "uint256"
        },
        {
          "internalType": "uint256",
          "name": "ask",
          "type": "uint256"
        }
      ],
      "name": "postQuote",
      "outputs": [],
      "stateMutability": "nonpayable",
      "type": "function"
    },
    {
      "inputs": [
        {
          "internalType": "uint256",
          "name": "",
          "type": "uint256"
        },
        {
          "internalType": "uint8",
          "name": "",
          "type": "uint8"
        }
      ],
      "name": "quotes",
      "outputs": [
        {
          "internalType": "uint256",
          "name": "bid",
          "type": "uint256"
        },
        {
          "internalType": "uint256",
          "name": "ask",
          "type": "uint256"
        }
      ],
      "stateMutability": "view",
      "type": "function"
    },
    {
      "inputs": [],
      "name": "renounceOwnership",
      "outputs": [],
      "stateMutability": "nonpayable",
      "type": "function"
    },
    {
      "inputs": [
        {
          "internalType": "uint256",
          "name": "tableId",
          "type": "uint256"
        },
        {
          "internalType": "uint256",
          "name": "total",
          "type": "uint256"
        }
      ],
      "name": "revealAndSettle",
      "outputs": [],
      "stateMutability": "nonpayable",
      "type": "function"
    },
    {
      "inputs": [
        {
          "internalType": "uint256",
          "name": "",
          "type": "uint256"
        }
      ],
      "name": "tables",
      "outputs": [
        {
          "internalType": "uint256",
          "name": "id",
          "type": "uint256"
        },
        {
          "components": [
            {
              "internalType": "uint256",
              "name": "tick",
              "type": "uint256"
            },
            {
              "internalType": "uint256",
              "name": "feePct",
              "type": "uint256"
            },
            {
              "internalType": "uint256",
              "name": "roundLength",
              "type": "uint256"
            },
            {
              "internalType": "bool",
              "name": "twoWayMode",
              "type": "bool"
            },
            {
              "internalType": "uint256",
              "name": "minBuyIn",
              "type": "uint256"
            }
          ],
          "internalType": "struct WTFTradingTable.TableConfig",
          "name": "config",
          "type": "tuple"
        },
        {
          "internalType": "uint256",
          "name": "roundEnd",
          "type": "uint256"
        },
        {
          "internalType": "bool",
          "name": "active",
          "type": "bool"
        }
      ],
      "stateMutability": "view",
      "type": "function"
    },
    {
      "inputs": [],
      "name": "token",
      "outputs": [
        {
          "internalType": "contract IERC20",
          "name": "",
          "type": "address"
        }
      ],
      "stateMutability": "view",
      "type": "function"
    },
    {
      "inputs": [
        {
          "internalType": "uint256",
          "name": "",
          "type": "uint256"
        },
        {
          "internalType": "uint256",
          "name": "",
          "type": "uint256"
        }
      ],
      "name": "trades",
      "outputs": [
        {
          "internalType": "uint8",
          "name": "buyer",
          "type": "uint8"
        },
        {
          "internalType": "uint8",
          "name": "seller",
          "type": "uint8"
        },
        {
          "internalType": "uint256",
          "name": "priceTicks",
          "type": "uint256"
        },
        {
          "internalType": "uint256",
          "name": "timestamp",
          "type": "uint256"
        }
      ],
      "stateMutability": "view",
      "type": "function"
    },
    {
      "inputs": [
        {
          "internalType": "address",
          "name": "newOwner",
          "type": "address"
        }
      ],
      "name": "transferOwnership",
      "outputs": [],
      "stateMutability": "nonpayable",
      "type": "function"
    }
  ],
  "bytecode": "0x60a06040523480156200001157600080fd5b50604051620025a9380380620025a983398181016040528101906200003791906200023c565b33600073ffffffffffffffffffffffffffffffffffffffff168173ffffffffffffffffffffffffffffffffffffffff1603620000ad5760006040517f1e4fbdf7000000000000000000000000000000000000000000000000000000008152600401620000a491906200027f565b60405180910390fd5b620000be81620000fa60201b60201c565b508073ffffffffffffffffffffffffffffffffffffffff1660808173ffffffffffffffffffffffffffffffffffffffff1681525050506200029c565b60008060009054906101000a900473ffffffffffffffffffffffffffffffffffffffff169050816000806101000a81548173ffffffffffffffffffffffffffffffffffffffff021916908373ffffffffffffffffffffffffffffffffffffffff1602179055508173ffffffffffffffffffffffffffffffffffffffff168173ffffffffffffffffffffffffffffffffffffffff167f8be0079c531659141344cd1fd0a4f28419497f9722a3daafe3b4186f6b6457e060405160405180910390a35050565b600080fd5b600073ffffffffffffffffffffffffffffffffffffffff82169050919050565b6000620001f082620001c3565b9050919050565b60006200020482620001e3565b9050919050565b6200021681620001f7565b81146200022257600080fd5b50565b60008151905062000236816200020b565b92915050565b600060208284031215620002555762000254620001be565b5b6000620002658482850162000225565b91505092915050565b6200027981620001e3565b82525050565b60006020820190506200029660008301846200026e565b92915050565b6080516122e3620002c66000396000818161076f01528181610fc6015261130401526122e36000f3fe608060405234801561001057600080fd5b50600436106100f55760003560e01c8063758eca8c1161009757806394922645116100665780639492264514610277578063ac010aa614610293578063f2fde38b146102af578063fc0c546a146102cb576100f5565b8063758eca8c1461020357806383dcc0e21461021f57806388a01cd71461023b5780638da5cb5b14610259576100f5565b80633a23bbd3116100d35780633a23bbd3146101655780635f32d9b214610196578063715018a6146101c657806371671bf2146101d0576100f5565b80632a7beacc146100fa5780633284739d1461012d578063396ce51a14610149575b600080fd5b610114600480360381019061010f9190611553565b6102e9565b60405161012494939291906115be565b60405180910390f35b61014760048036038101906101429190611758565b610350565b005b610163600480360381019061015e9190611553565b610456565b005b61017f600480360381019061017a91906117b1565b610883565b60405161018d9291906117f1565b60405180910390f35b6101b060048036038101906101ab91906117b1565b6108b4565b6040516101bd919061181a565b60405180910390f35b6101ce6108d9565b005b6101ea60048036038101906101e59190611835565b6108ed565b6040516101fa94939291906118f7565b60405180910390f35b61021d6004803603810190610218919061193d565b610977565b005b6102396004803603810190610234919061193d565b610ba8565b005b610243610dd9565b604051610250919061181a565b60405180910390f35b610261610ddf565b60405161026e91906119e5565b60405180910390f35b610291600480360381019061028c91906117b1565b610e08565b005b6102ad60048036038101906102a89190611a00565b611125565b005b6102c960048036038101906102c49190611a93565b61127c565b005b6102d3611302565b6040516102e09190611b1f565b60405180910390f35b6005602052816000526040600020818154811061030557600080fd5b9060005260206000209060030201600091509150508060000160009054906101000a900460ff16908060000160019054906101000a900460ff16908060010154908060020154905084565b610358611326565b60006001600081548092919061036d90611b69565b9190505590506000600260008381526020019081526020016000209050818160000181905550828160010160008201518160000155602082015181600101556040820151816002015560608201518160030160006101000a81548160ff021916908315150217905550608082015181600401559050508260400151426103f39190611bb1565b81600b0181905550600181600c0160006101000a81548160ff0219169083151502179055507fa8d379b233f9c0bbf4dbf231dda4252eaf89057044985dfcff61c4987bbb23ae8284604051610449929190611be5565b60405180910390a1505050565b600060026000848152602001908152602001600020905080600b01544210156104b4576040517f08c379a00000000000000000000000000000000000000000000000000000000081526004016104ab90611c6b565b60405180910390fd5b6104bc611479565b600060056000868152602001908152602001600020905060005b81805490508110156105d45760008282815481106104f7576104f6611c8b565b5b9060005260206000209060030201905060008160010154876105199190611cc4565b905085600101600001548161052e9190611d07565b858360000160009054906101000a900460ff1660ff166005811061055557610554611c8b565b5b602002018181516105669190611d7f565b915081815250508560010160000154816105809190611d07565b858360000160019054906101000a900460ff1660ff16600581106105a7576105a6611c8b565b5b602002018181516105b89190611cc4565b91508181525050505080806105cc90611b69565b9150506104d6565b5060005b60058160ff161015610825576000846006018260ff16600581106105ff576105fe611c8b565b5b0160009054906101000a900473ffffffffffffffffffffffffffffffffffffffff169050600073ffffffffffffffffffffffffffffffffffffffff168173ffffffffffffffffffffffffffffffffffffffff160361065d5750610812565b6000848360ff166005811061067557610674611c8b565b5b6020020151600360008a815260200190815260200160002060008560ff1660ff168152602001908152602001600020546106af9190611d7f565b905060008082136106c15760006106c3565b815b90506000600360008b815260200190815260200160002060008660ff1660ff16815260200190815260200160002081905550600081111561080e57600080878660ff166005811061071757610716611c8b565b5b6020020151131561076d576127108860010160010154888760ff166005811061074357610742611c8b565b5b60200201516107529190611dc3565b61075c9190611e34565b9050808261076a9190611e65565b91505b7f000000000000000000000000000000000000000000000000000000000000000073ffffffffffffffffffffffffffffffffffffffff1663a9059cbb85846040518363ffffffff1660e01b81526004016107c8929190611e99565b6020604051808303816000875af11580156107e7573d6000803e3d6000fd5b505050506040513d601f19601f8201168201806040525081019061080b9190611ed7565b50505b5050505b808061081d90611f04565b9150506105d8565b50600560008681526020019081526020016000206000610845919061149b565b7fcc3183593ff0e17b930d6f19f832ddcf865bf7ef55eb16754850c55ac447b2ad85604051610874919061181a565b60405180910390a15050505050565b6004602052816000526040600020602052806000526040600020600091509150508060000154908060010154905082565b6003602052816000526040600020602052806000526040600020600091509150505481565b6108e1611326565b6108eb60006113ad565b565b6002602052806000526040600020600091509050806000015490806001016040518060a00160405290816000820154815260200160018201548152602001600282015481526020016003820160009054906101000a900460ff161515151581526020016004820154815250509080600b01549080600c0160009054906101000a900460ff16905084565b83823373ffffffffffffffffffffffffffffffffffffffff16600260008481526020019081526020016000206006018260ff16600581106109bb576109ba611c8b565b5b0160009054906101000a900473ffffffffffffffffffffffffffffffffffffffff1673ffffffffffffffffffffffffffffffffffffffff1614610a33576040517f08c379a0000000000000000000000000000000000000000000000000000000008152600401610a2a90611f79565b60405180910390fd5b60006004600088815260200190815260200160002060008760ff1660ff168152602001908152602001600020905083816000015414610aa7576040517f08c379a0000000000000000000000000000000000000000000000000000000008152600401610a9e90611fe5565b60405180910390fd5b6005600088815260200190815260200160002060405180608001604052808860ff1681526020018760ff16815260200186815260200142815250908060018154018082558091505060019003906000526020600020906003020160009091909190915060008201518160000160006101000a81548160ff021916908360ff16021790555060208201518160000160016101000a81548160ff021916908360ff160217905550604082015181600101556060820151816002015550507f48062d1936802460a96e74595da1c34dc9021d02c34dc8e3eb997fe5a4e661ff87878787604051610b979493929190612005565b60405180910390a150505050505050565b83823373ffffffffffffffffffffffffffffffffffffffff16600260008481526020019081526020016000206006018260ff1660058110610bec57610beb611c8b565b5b0160009054906101000a900473ffffffffffffffffffffffffffffffffffffffff1673ffffffffffffffffffffffffffffffffffffffff1614610c64576040517f08c379a0000000000000000000000000000000000000000000000000000000008152600401610c5b90611f79565b60405180910390fd5b60006004600088815260200190815260200160002060008760ff1660ff168152602001908152602001600020905083816001015414610cd8576040517f08c379a0000000000000000000000000000000000000000000000000000000008152600401610ccf90611fe5565b60405180910390fd5b6005600088815260200190815260200160002060405180608001604052808760ff1681526020018860ff16815260200186815260200142815250908060018154018082558091505060019003906000526020600020906003020160009091909190915060008201518160000160006101000a81548160ff021916908360ff16021790555060208201518160000160016101000a81548160ff021916908360ff160217905550604082015181600101556060820151816002015550507f48062d1936802460a96e74595da1c34dc9021d02c34dc8e3eb997fe5a4e661ff87868887604051610dc89493929190612005565b60405180910390a150505050505050565b60015481565b60008060009054906101000a900473ffffffffffffffffffffffffffffffffffffffff16905090565b600060026000848152602001908152602001600020905080600c0160009054906101000a900460ff16610e70576040517f08c379a0000000000000000000000000000000000000000000000000000000008152600401610e6790612096565b60405180910390fd5b60058260ff1610610eb6576040517f08c379a0000000000000000000000000000000000000000000000000000000008152600401610ead90612102565b60405180910390fd5b600073ffffffffffffffffffffffffffffffffffffffff16816006018360ff1660058110610ee757610ee6611c8b565b5b0160009054906101000a900473ffffffffffffffffffffffffffffffffffffffff1673ffffffffffffffffffffffffffffffffffffffff1614610f5f576040517f08c379a0000000000000000000000000000000000000000000000000000000008152600401610f569061216e565b60405180910390fd5b33816006018360ff1660058110610f7957610f78611c8b565b5b0160006101000a81548173ffffffffffffffffffffffffffffffffffffffff021916908373ffffffffffffffffffffffffffffffffffffffff1602179055506000816001016004015490507f000000000000000000000000000000000000000000000000000000000000000073ffffffffffffffffffffffffffffffffffffffff166323b872dd3330846040518463ffffffff1660e01b81526004016110219392919061218e565b6020604051808303816000875af1158015611040573d6000803e3d6000fd5b505050506040513d601f19601f820116820180604052508101906110649190611ed7565b6110a3576040517f08c379a000000000000000000000000000000000000000000000000000000000815260040161109a90612211565b60405180910390fd5b806003600086815260200190815260200160002060008560ff1660ff16815260200190815260200160002060008282546110dd9190611bb1565b925050819055507fd7012949087694262b79936dc8bd8cd0631709e0eb2ec840460c3fe1f5de7d2484843360405161111793929190612231565b60405180910390a150505050565b83833373ffffffffffffffffffffffffffffffffffffffff16600260008481526020019081526020016000206006018260ff166005811061116957611168611c8b565b5b0160009054906101000a900473ffffffffffffffffffffffffffffffffffffffff1673ffffffffffffffffffffffffffffffffffffffff16146111e1576040517f08c379a00000000000000000000000000000000000000000000000000000000081526004016111d890611f79565b60405180910390fd5b6040518060400160405280858152602001848152506004600088815260200190815260200160002060008760ff1660ff16815260200190815260200160002060008201518160000155602082015181600101559050507f2d3a23e5eeaeeb37ee3b81ae9016aa652b37388a37e8ccb8631cddf54b6b2bf78686868660405161126c9493929190612268565b60405180910390a1505050505050565b611284611326565b600073ffffffffffffffffffffffffffffffffffffffff168173ffffffffffffffffffffffffffffffffffffffff16036112f65760006040517f1e4fbdf70000000000000000000000000000000000000000000000000000000081526004016112ed91906119e5565b60405180910390fd5b6112ff816113ad565b50565b7f000000000000000000000000000000000000000000000000000000000000000081565b61132e611471565b73ffffffffffffffffffffffffffffffffffffffff1661134c610ddf565b73ffffffffffffffffffffffffffffffffffffffff16146113ab5761136f611471565b6040517f118cdaa70000000000000000000000000000000000000000000000000000000081526004016113a291906119e5565b60405180910390fd5b565b60008060009054906101000a900473ffffffffffffffffffffffffffffffffffffffff169050816000806101000a81548173ffffffffffffffffffffffffffffffffffffffff021916908373ffffffffffffffffffffffffffffffffffffffff1602179055508173ffffffffffffffffffffffffffffffffffffffff168173ffffffffffffffffffffffffffffffffffffffff167f8be0079c531659141344cd1fd0a4f28419497f9722a3daafe3b4186f6b6457e060405160405180910390a35050565b600033905090565b6040518060a00160405280600590602082028036833780820191505090505090565b50805460008255600302906000526020600020908101906114bc91906114bf565b50565b5b8082111561150a57600080820160006101000a81549060ff02191690556000820160016101000a81549060ff021916905560018201600090556002820160009055506003016114c0565b5090565b6000604051905090565b600080fd5b6000819050919050565b6115308161151d565b811461153b57600080fd5b50565b60008135905061154d81611527565b92915050565b6000806040838503121561156a57611569611518565b5b60006115788582860161153e565b92505060206115898582860161153e565b9150509250929050565b600060ff82169050919050565b6115a981611593565b82525050565b6115b88161151d565b82525050565b60006080820190506115d360008301876115a0565b6115e060208301866115a0565b6115ed60408301856115af565b6115fa60608301846115af565b95945050505050565b600080fd5b6000601f19601f8301169050919050565b7f4e487b7100000000000000000000000000000000000000000000000000000000600052604160045260246000fd5b61165182611608565b810181811067ffffffffffffffff821117156116705761166f611619565b5b80604052505050565b600061168361150e565b905061168f8282611648565b919050565b60008115159050919050565b6116a981611694565b81146116b457600080fd5b50565b6000813590506116c6816116a0565b92915050565b600060a082840312156116e2576116e1611603565b5b6116ec60a0611679565b905060006116fc8482850161153e565b60008301525060206117108482850161153e565b60208301525060406117248482850161153e565b6040830152506060611738848285016116b7565b606083015250608061174c8482850161153e565b60808301525092915050565b600060a0828403121561176e5761176d611518565b5b600061177c848285016116cc565b91505092915050565b61178e81611593565b811461179957600080fd5b50565b6000813590506117ab81611785565b92915050565b600080604083850312156117c8576117c7611518565b5b60006117d68582860161153e565b92505060206117e78582860161179c565b9150509250929050565b600060408201905061180660008301856115af565b61181360208301846115af565b9392505050565b600060208201905061182f60008301846115af565b92915050565b60006020828403121561184b5761184a611518565b5b60006118598482850161153e565b91505092915050565b61186b8161151d565b82525050565b61187a81611694565b82525050565b60a0820160008201516118966000850182611862565b5060208201516118a96020850182611862565b5060408201516118bc6040850182611862565b5060608201516118cf6060850182611871565b5060808201516118e26080850182611862565b50505050565b6118f181611694565b82525050565b60006101008201905061190d60008301876115af565b61191a6020830186611880565b61192760c08301856115af565b61193460e08301846118e8565b95945050505050565b6000806000806080858703121561195757611956611518565b5b60006119658782880161153e565b94505060206119768782880161179c565b93505060406119878782880161179c565b92505060606119988782880161153e565b91505092959194509250565b600073ffffffffffffffffffffffffffffffffffffffff82169050919050565b60006119cf826119a4565b9050919050565b6119df816119c4565b82525050565b60006020820190506119fa60008301846119d6565b92915050565b60008060008060808587031215611a1a57611a19611518565b5b6000611a288782880161153e565b9450506020611a398782880161179c565b9350506040611a4a8782880161153e565b9250506060611a5b8782880161153e565b91505092959194509250565b611a70816119c4565b8114611a7b57600080fd5b50565b600081359050611a8d81611a67565b92915050565b600060208284031215611aa957611aa8611518565b5b6000611ab784828501611a7e565b91505092915050565b6000819050919050565b6000611ae5611ae0611adb846119a4565b611ac0565b6119a4565b9050919050565b6000611af782611aca565b9050919050565b6000611b0982611aec565b9050919050565b611b1981611afe565b82525050565b6000602082019050611b346000830184611b10565b92915050565b7f4e487b7100000000000000000000000000000000000000000000000000000000600052601160045260246000fd5b6000611b748261151d565b91507fffffffffffffffffffffffffffffffffffffffffffffffffffffffffffffffff8203611ba657611ba5611b3a565b5b600182019050919050565b6000611bbc8261151d565b9150611bc78361151d565b9250828201905080821115611bdf57611bde611b3a565b5b92915050565b600060c082019050611bfa60008301856115af565b611c076020830184611880565b9392505050565b600082825260208201905092915050565b7f726f756e64000000000000000000000000000000000000000000000000000000600082015250565b6000611c55600583611c0e565b9150611c6082611c1f565b602082019050919050565b60006020820190508181036000830152611c8481611c48565b9050919050565b7f4e487b7100000000000000000000000000000000000000000000000000000000600052603260045260246000fd5b6000819050919050565b6000611ccf82611cba565b9150611cda83611cba565b9250828203905081811260008412168282136000851215161715611d0157611d00611b3a565b5b92915050565b6000611d1282611cba565b9150611d1d83611cba565b9250828202611d2b81611cba565b91507f80000000000000000000000000000000000000000000000000000000000000008414600084121615611d6357611d62611b3a565b5b8282058414831517611d7857611d77611b3a565b5b5092915050565b6000611d8a82611cba565b9150611d9583611cba565b925082820190508281121560008312168382126000841215161715611dbd57611dbc611b3a565b5b92915050565b6000611dce8261151d565b9150611dd98361151d565b9250828202611de78161151d565b91508282048414831517611dfe57611dfd611b3a565b5b5092915050565b7f4e487b7100000000000000000000000000000000000000000000000000000000600052601260045260246000fd5b6000611e3f8261151d565b9150611e4a8361151d565b925082611e5a57611e59611e05565b5b828204905092915050565b6000611e708261151d565b9150611e7b8361151d565b9250828203905081811115611e9357611e92611b3a565b5b92915050565b6000604082019050611eae60008301856119d6565b611ebb60208301846115af565b9392505050565b600081519050611ed1816116a0565b92915050565b600060208284031215611eed57611eec611518565b5b6000611efb84828501611ec2565b91505092915050565b6000611f0f82611593565b915060ff8203611f2257611f21611b3a565b5b600182019050919050565b7f6e6f742073656174000000000000000000000000000000000000000000000000600082015250565b6000611f63600883611c0e565b9150611f6e82611f2d565b602082019050919050565b60006020820190508181036000830152611f9281611f56565b9050919050565b7f7072696365000000000000000000000000000000000000000000000000000000600082015250565b6000611fcf600583611c0e565b9150611fda82611f99565b602082019050919050565b60006020820190508181036000830152611ffe81611fc2565b9050919050565b600060808201905061201a60008301876115af565b61202760208301866115a0565b61203460408301856115a0565b61204160608301846115af565b95945050505050565b7f7461626c65000000000000000000000000000000000000000000000000000000600082015250565b6000612080600583611c0e565b915061208b8261204a565b602082019050919050565b600060208201905081810360008301526120af81612073565b9050919050565b7f736561742072616e676500000000000000000000000000000000000000000000600082015250565b60006120ec600a83611c0e565b91506120f7826120b6565b602082019050919050565b6000602082019050818103600083015261211b816120df565b9050919050565b7f74616b656e000000000000000000000000000000000000000000000000000000600082015250565b6000612158600583611c0e565b915061216382612122565b602082019050919050565b600060208201905081810360008301526121878161214b565b9050919050565b60006060820190506121a360008301866119d6565b6121b060208301856119d6565b6121bd60408301846115af565b949350505050565b7f7472616e73666572000000000000000000000000000000000000000000000000600082015250565b60006121fb600883611c0e565b9150612206826121c5565b602082019050919050565b6000602082019050818103600083015261222a816121ee565b9050919050565b600060608201905061224660008301866115af565b61225360208301856115a0565b61226060408301846119d6565b949350505050565b600060808201905061227d60008301876115af565b61228a60208301866115a0565b61229760408301856115af565b6122a460608301846115af565b9594505050505056fea2646970667358221220085f3f797db610cc848d20833ac86a11a21f34693b8ab50f528bf247292b123864736f6c63430008140033",
  "linkReferences": {},
  "deployedLinkReferences": {}
}